:020000040000FA
:100000000C945D000C9485000C9485000C94850084
:100010000C9485000C9485000C9485000C9485004C
:100020000C9485000C9485000C9485000C9485003C
:100030000C9485000C9485000C9485000C9485002C
:100040000C94DE030C9485000C94AC030C94860392
:100050000C9485000C9485000C9485000C9485000C
:100060000C9485000C9485000000000024002700FB
:100070002A0000000000250028002B0004040404CE
:100080000404040402020202020203030303030342
:10009000010204081020408001020408102001021F
:1000A00004081020000000080002010000030407FB
:1000B00000000000000000005F0611241FBECFEF0B
:1000C000D4E0DEBFCDBF22E0A8E4B1E001C01D92C4
:1000D000A230B207E1F711E0A0E0B1E0E8E1F2E11F
:1000E00002C005900D92A834B107D9F710E0CDE514
:1000F000D0E004C02197FE010E941207CC35D10741
:10010000C9F70E9428040C940A090C940000E1EB42
:10011000F0E02491EDE9F0E09491E9E8F0E0E49179
:10012000EE23C9F0222339F0233001F1A8F4213065
:1001300019F1223029F1F0E0EE0FFF1FEE58FF4FCA
:10014000A591B4912FB7F894EC91811126C09095A8
:100150009E239C932FBF08952730A9F02830C9F023
:10016000243049F7209180002F7D03C0209180002A
:100170002F7720938000DFCF24B52F7724BDDBCFEE
:1001800024B52F7DFBCF2091B0002F772093B000B6
:10019000D2CF2091B0002F7DF9CF9E2BDACFAF9236
:1001A000BF92CF92DF92EF92FF920F931F93CF9364
:1001B000DF936C017B018B01040F151FEB015E01C6
:1001C000AE18BF08C017D10759F06991D601ED915B
:1001D000FC910190F081E02DC6010995892B79F7FA
:1001E000C501DF91CF911F910F91FF90EF90DF90AC
:1001F000CF90BF90AF900895FC01538D448D252F73
:1002000030E0842F90E0821B930B541710F0CF96B0
:10021000089501970895FC01918D828D981761F0E2
:10022000A28DAE0FBF2FB11D5D968C91928D9F5FF9
:100230009F73928F90E008958FEF9FEF0895FC01D8
:10024000918D828D981731F0828DE80FF11D858D8B
:1002500090E008958FEF9FEF0895FC01918D228D1E
:10026000892F90E0805C9F4F821B91098F739927A3
:10027000089581E691E00E942D0121E0892B09F487
:1002800020E0822F089580E090E0892B29F00E94E1
:10029000390181110C9400000895FC01A48DA80F70
:1002A000B92FB11DA35ABF4F2C91848D90E00196B8
:1002B0008F739927848FA689B7892C93A089B189D8
:1002C0008C91837080648C93938D848D981306C079
:1002D0000288F389E02D80818F7D80830895EF92DD
:1002E000FF920F931F93CF93DF93EC0181E0888FF0
:1002F0009B8D8C8D98131AC0E889F989808185FFC0
:1003000015C09FB7F894EE89FF896083E889F98961
:1003100080818370806480839FBF81E090E0DF9163
:10032000CF911F910F91FF90EF900895F62E0B8DB6
:1003300010E00F5F1F4F0F731127E02E8C8D8E1171
:100340000CC00FB607FCFACFE889F989808185FFD8
:10035000F5CFCE010E944D01F1CFEB8DEC0FFD2FBB
:10036000F11DE35AFF4FF0829FB7F8940B8FEA8993
:10037000FB8980818062CFCFCF93DF93EC01888DA2
:100380008823B9F0AA89BB89E889F9898C9185FD10
:1003900003C0808186FD0DC00FB607FCF7CF8C919E
:1003A00085FFF2CF808185FFEDCFCE010E944D0108
:1003B000E9CFDF91CF9108953FB7F89480914D0137
:1003C00090914E01A0914F01B091500126B5A89B8C
:1003D00005C02F3F19F00196A11DB11D3FBFBA2FD7
:1003E000A92F982F8827BC01CD01620F711D811D97
:1003F000911D42E0660F771F881F991F4A95D1F71C
:1004000008958F929F92AF92BF92CF92DF92EF9218
:10041000FF920E94DC014B015C0182E3C82ED12CCB
:10042000E12CF12C0E94DC01681979098A099B09E9
:10043000683E734081059105A8F321E0C21AD108F6
:10044000E108F10888EE880E83E0981EA11CB11C1B
:10045000C114D104E104F10429F7FF90EF90DF907B
:10046000CF90BF90AF909F908F9008952FB7F89442
:100470006091490170914A0180914B0190914C012A
:100480002FBF08950F931F930E9436026093690156
:1004900070936A0180936B0190936C0181E691E007
:1004A0000E941F0197FF1DC00E9436020091690142
:1004B00010916A0120916B0130916C01601B710BEE
:1004C000820B930B009165011091660120916701E9
:1004D000309168016017710782079307F8F28FEF78
:1004E0009FEF1F910F91089542E050E068E171E0A5
:1004F00081E691E00C94CF00CF93DF93FC01019053
:100500000020E9F73197AF01481B590BBC0181E688
:1005100091E00E94CF00EC010E9474028C0F9D1F9D
:10052000DF91CF910895CF93DF93FC0144815581F2
:100530006081718181E691E00E94CF00EC010E9410
:1005400074028C0F9D1FDF91CF910895FC01808173
:100550009181009711F00C94B40708950F931F93A5
:10056000CF93DF93EC0188819981009759F02A811C
:100570003B812617370730F081E0DF91CF911F9143
:100580000F9108958B016F5F7F4F0E943D08009788
:1005900059F0998388831B830A832C813D81232B07
:1005A00059F7FC011082E8CF80E0E7CFEF92FF928D
:1005B0000F931F93CF93DF93EC01FB01E080F18059
:1005C000E114F10411F10481158101151105A9F05F
:1005D0008C819D81080F191FB801CE010E94AE02C7
:1005E000882399F0288139818C819D81B701820F00
:1005F000931F0E9403091D830C83CE01DF91CF91CD
:100600001F910F91FF90EF90089588819981009735
:1006100011F00E94B407198218821D821C821B826D
:100620001A82EBCFEF92FF920F931F93CF93DF933A
:10063000EC017B018A01BA010E94AE022881398156
:10064000811114C02115310519F0C9010E94B407A8
:10065000198218821D821C821B821A82CE01DF91B0
:10066000CF911F910F91FF90EF9008951D830C8300
:10067000B701C9010E940309F1CFEF92FF920F93D6
:100680001F93CF93DF93CDB7DEB762970FB6F89481
:10069000DEBF0FBECDBF8C01CB01F80111821082ED
:1006A00013821282158214824AE09E012F5F3F4F0F
:1006B0007901B9010E948C06F70101900020E9F749
:1006C0003197AF014E195F09B701C8010E941203AB
:1006D00062960FB6F894DEBF0FBECDBFDF91CF910B
:1006E0001F910F91FF90EF900895FC0111821082ED
:1006F0001382128215821482FB0101900020E9F717
:100700003197AF01461B570B0C9412031F920F92A7
:100710000FB60F9211242F933F934F935F936F93D4
:100720007F938F939F93AF93BF93EF93FF9381E654
:1007300091E00E944D01FF91EF91BF91AF919F9188
:100740008F917F916F915F914F913F912F910F907A
:100750000FBE0F901F9018951F920F920FB60F9219
:1007600011242F938F939F93EF93FF93E091710147
:10077000F09172018081E0917701F091780182FD22
:100780001BC0908180917A018F5F8F7320917B01D4
:10079000821741F0E0917A01F0E0EF59FE4F958F1A
:1007A00080937A01FF91EF919F918F912F910F90FC
:1007B0000FBE0F901F9018958081F4CF1F920F925B
:1007C0000FB60F9211242F933F938F939F93AF9364
:1007D000BF938091490190914A01A0914B01B09142
:1007E0004C013091480123E0230F2D3758F5019635
:1007F000A11DB11D209348018093490190934A01A6
:10080000A0934B01B0934C0180914D0190914E010A
:10081000A0914F01B09150010196A11DB11D80938F
:100820004D0190934E01A0934F01B0935001BF91A1
:10083000AF919F918F913F912F910F900FBE0F908D
:100840001F90189526E8230F0296A11DB11DD2CF47
:10085000CF93DF93CDB7DEB72C970FB6F894DEBFFA
:100860000FBECDBF789484B5826084BD84B58160AD
:1008700084BD85B5826085BD85B5816085BD80916B
:100880006E00816080936E001092810080918100E3
:1008900082608093810080918100816080938100DB
:1008A000809180008160809380008091B10084609D
:1008B0008093B1008091B00081608093B0008091FE
:1008C0007A00846080937A0080917A0082608093BD
:1008D0007A0080917A00816080937A0080917A001A
:1008E000806880937A001092C100E0917101F091CC
:1008F000720182E08083E0916D01F0916E011082BF
:10090000E0916F01F09170018FEC8083109279017A
:10091000E0917501F091760186E08083E0917301AA
:10092000F0917401808180618083E0917301F09186
:100930007401808188608083E0917301F09174017B
:10094000808180688083E0917301F09174018081DF
:100950008F7D8083EDE9F0E02491E9E8F0E0849177
:10096000882399F090E0880F991FFC01E859FF4F08
:10097000A591B491FC01EE58FF4F859194918FB7EA
:10098000F894EC91E22BEC938FBF81E00E948700FA
:100990000E94010280E00E9487008BE191E00E94AA
:1009A0007C0208EE13E0AA24A394B12C80E0882EE8
:1009B00080E0982E81E691E00E942D0102970CF4D0
:1009C000C6C081E691E00E940B01782E0E9442028F
:1009D000FC0197FD57C08D32910521F0C0970A9711
:1009E00008F048C0C12CD12C7601612CE130F10512
:1009F000D9F0ED32F10509F442C0CF01C0970A9752
:100A000098F4AAE0B0E0A70196010E94C1066F0128
:100A1000FF0FEE08FF08C60ED71EE81EF91E80E382
:100A2000C81AD108E108F10881E691E00E940B01A3
:100A30000E944202FC01C0970A97C0F2E130F10522
:100A4000A9F2662041F0F094E094D094C094C11CC7
:100A5000D11CE11CF11C83E77816C1F084E77816FD
:100A600009F424C180E7781215C0D0925C01C092CD
:100A70005B0110C081E691E00E940B01A7CF6624C4
:100A80006394D2CFC12CD12C7601E5CFD0926001F6
:100A9000C0925F0160915F0170916001CE0101968B
:100AA0000E943D0363E271E0CE0107960E94750348
:100AB000BE016F5F7F4FCE0107960E94D6020E9453
:100AC0009302CE0107960E94A602CE0101960E94D3
:100AD000A60260915D0170915E01CE0101960E94B7
:100AE0003D0369E271E0CE0107960E947503BE01E5
:100AF0006F5F7F4FCE0107960E94D6020E9493023D
:100B0000CE0107960E94A602CE0101960E94A6027F
:100B100060915B0170915C01CE0101960E943D03E2
:100B20006FE271E0CE0107960E947503BE016F5F10
:100B30007F4FCE0107960E94D6020E949302CE01FB
:100B400007960E94A602CE0101960E94A6028091FD
:100B50005F0190916001892B09F4ADC00E943602BB
:100B6000C0905701D0905801E0905901F0905A017F
:100B7000AB01BC014C195D096E097F0920915D0133
:100B800030915E01209FC001219F900D309F900DFC
:100B90001124092E000CAA0BBB0B84179507A6077E
:100BA000B70750F58091550190915601892B21F599
:100BB0000E94360260935701709358018093590147
:100BC00090935A010E943602609351017093520132
:100BD000809353019093540181E00E9487000E940A
:100BE000010280E00E94870087E391E00E947C027E
:100BF000B0925601A09255010E943602C090510158
:100C0000D0905201E0905301F0905401AB01BC012F
:100C10004C195D096E097F0920915B0130915C01DF
:100C2000209FC001219F900D309F900D1124092E0F
:100C3000000CAA0BBB0B84179507A607B70750F546
:100C40008091550190915601019721F50E9436023D
:100C5000609351017093520180935301909354011A
:100C60000E94360260935701709358018093590196
:100C700090935A0181E00E9487000E94010280E067
:100C80000E94870080E491E00E947C02109256014D
:100C9000109255018114910409F48CCE0E943901FF
:100CA000882309F487CE0E94000080CED0925E0196
:100CB000C0925D01EFCE80E00E948700EBCFE1E6BD
:100CC000F1E01382128288EE93E0A0E0B0E084832A
:100CD0009583A683B7838AE091E09183808385EC36
:100CE00090E09587848784EC90E09787868780ECF6
:100CF00090E0918B808B81EC90E0938B828B82ECE7
:100D000090E0958B848B86EC90E0978B868B118E90
:100D1000128E138E148E0895BB274A3031F4992316
:100D200022F4BDE2909581959F4F0C949806BB27C5
:100D3000FB015527AA27880F991FAA1FA41710F097
:100D4000A41B83955051B9F7A05DAA3308F0A95DA3
:100D5000A193009779F7B111B1931192CB010C9443
:100D6000B106DC01FC01672F71917723E1F732971F
:100D700004C07C916D9370836291AE17BF07C8F376
:100D800008950E940307A59F900DB49F900DA49F06
:100D9000800D911D112408952F923F924F925F92E2
:100DA0006F927F928F929F92AF92BF92CF92DF927B
:100DB000EF92FF920F931F93CF93DF93CDB7DEB7E0
:100DC000CA1BDB0B0FB6F894DEBF0FBECDBF099474
:100DD0002A88398848885F846E847D848C849B84CB
:100DE000AA84B984C884DF80EE80FD800C811B81D9
:100DF000AA81B981CE0FD11D0FB6F894DEBF0FBE08
:100E0000CDBFED010895A29FB001B39FC001A39F84
:100E1000700D811D1124911DB29F700D811D112433
:100E2000911D0895EE0FFF1F0590F491E02D099498
:100E30000F931F93CF93DF938230910510F482E0DC
:100E400090E0E0910002F091010230E020E0B0E09B
:100E5000A0E0309799F42115310509F44AC0281B08
:100E6000390B24303105D8F58A819B8161157105D4
:100E700089F1FB0193838283FE0111C0408151817E
:100E80000281138148175907E0F04817590799F470
:100E9000109761F012960C93129713961C9332964A
:100EA000CF01DF91CF911F910F9108950093000220
:100EB00010930102F4CF2115310551F04217530769
:100EC00038F0A901DB019A01BD01DF01F801C1CFB2
:100ED000EF01F9CF9093010280930002CDCFFE0184
:100EE000E20FF31F819391932250310939832883B4
:100EF000D7CF2091FE013091FF01232B41F42091A7
:100F00000201309103013093FF012093FE012091F3
:100F10000001309101012115310541F42DB73EB793
:100F20004091040150910501241B350BE091FE0115
:100F3000F091FF01E217F307A0F42E1B3F0B2817D7
:100F4000390778F0AC014E5F5F4F2417350748F042
:100F50004E0F5F1F5093FF014093FE0181939193C9
:100F60009FCFF0E0E0E09CCFCF93DF930097E9F0D4
:100F7000FC01329713821282A0910002B09101020B
:100F8000ED0130E020E01097A1F420813181820F43
:100F9000931F2091FE013091FF012817390709F0B6
:100FA00061C0F093FF01E093FE01DF91CF910895BE
:100FB000EA01CE17DF07E8F54A815B819E01411502
:100FC0005105B1F7E901FB83EA8349915991C40FB7
:100FD000D51FEC17FD0761F4808191810296840F83
:100FE000951FE90199838883828193819B838A83FA
:100FF000F0E0E0E012968D919C9113970097B9F57F
:101000002D913C911197CD010296820F931F209153
:10101000FE013091FF012817390739F6309751F555
:101020001092010210920002B093FF01A093FE0102
:10103000BCCFD383C28340815181840F951FC817D1
:10104000D90761F44E5F5F4F88819981480F591F1E
:10105000518340838A819B8193838283211531054B
:1010600009F0B0CFF0930102E09300029ECFFD01A2
:10107000DC01C0CF13821282D7CFB0E0A0E0E3E45E
:10108000F8E00C94CE068C01009751F4CB010E943D
:1010900018078C01C801CDB7DEB7E0E10C94EA0671
:1010A000FC01E60FF71F9C0122503109E217F307FC
:1010B00008F49DC0D901CD91DC911197C617D707CF
:1010C00098F0C530D10530F3CE0104978617970705
:1010D00008F3C61BD70B2297C193D1936D937C93D2
:1010E000CF010E94B407D6CF5B01AC1ABD0A4C01F8
:1010F0008C0E9D1EA0910002B0910102512C412C3A
:10110000F12CE12C109731F58091FE019091FF01B7
:101110008815990509F05CC04616570608F058C0B6
:101120008091000190910101009741F48DB79EB725
:101130004091040150910501841B950BE817F907B4
:1011400008F055C0F093FF01E093FE01F9017183AF
:101150006083A0CF8D919C91119712966C901297FD
:1011600013967C901397A815B90559F56C0142E0C8
:10117000C40ED11CCA14DB0420F1AC014A195B096E
:10118000DA011296159780F0628273825183408350
:10119000D9016D937C93E114F10471F0D70113969A
:1011A000FC93EE93129776CF22968C0F9D1FF90138
:1011B00091838083F301EFCFF0930102E09300026B
:1011C00069CF4816590608F42C017D01D3019ACF46
:1011D000CB010E9418077C01009749F0AE01B801CD
:1011E0000E94FA08C8010E94B407870153CF10E09B
:1011F00000E050CFFB01DC0102C001900D92415094
:101200005040D8F70895FB01DC0101900D920020B9
:10121000E1F70895F894FFCF00000202800000007B
:1012200000006F01CF00FC00BC012D010B011F016C
:101230000D0A004F6E2054696D6500466C61672091
:101240000054696D652000506572696F6420006FFD
:1012500066662054696D65006F6E2054696D650087
:103800000C94341C0C94511C0C94511C0C94511CA1
:103810000C94511C0C94511C0C94511C0C94511C74
:103820000C94511C0C94511C0C94511C0C94511C64
:103830000C94511C0C94511C0C94511C0C94511C54
:103840000C94511C0C94511C0C94511C0C94511C44
:103850000C94511C0C94511C0C94511C0C94511C34
:103860000C94511C0C94511C11241FBECFEFD4E0BA
:10387000DEBFCDBF11E0A0E0B1E0E4EAFFE302C0AB
:1038800005900D92A230B107D9F712E0A2E0B1E0A5
:1038900001C01D92AD30B107E1F70E94361D0C94B6
:1038A000D01F0C94001C982F9595959595959595FE
:1038B000905D8F708A307CF0282F295A8091C0004B
:1038C00085FFFCCF9093C6008091C00085FFFCCFA0
:1038D0002093C6000895282F205DF0CF982F809167
:1038E000C00085FFFCCF9093C6000895EF92FF9231
:1038F0000F931F93EE24FF2487018091C00087FD62
:1039000017C00894E11CF11C011D111D81E4E8168B
:1039100082E4F8068FE0080780E0180770F3E09172
:103920000401F091050109958091C00087FFE9CF5E
:103930008091C6001F910F91FF90EF9008950E9413
:10394000761C982F8091C00085FFFCCF9093C60015
:1039500091362CF490330CF09053892F089597559D
:10396000892F08951F930E949F1C182F0E949F1C4F
:103970001295107F810F1F910895882351F0982F81
:1039800091508091C00087FFFCCF8091C6009923A1
:10399000B9F708951F93182F0E94761C803249F0C2
:1039A000809103018F5F809303018530C1F01F91E7
:1039B00008958091C00085FFFCCF84E18093C6000C
:1039C0008091C00085FFFCCF1093C6008091C0009D
:1039D00085FFFCCF80E18093C6001F910895E091A0
:1039E0000401F091050109951F9108950E94761C2C
:1039F000803241F0809103018F5F80930301853015
:103A000081F008958091C00085FFFCCF84E1809310
:103A1000C6008091C00085FFFCCF80E18093C60086
:103A20000895E0910401F09105010995089510921F
:103A30000A028823D1F090E040E951E02D9A28EE67
:103A400033E0FA013197F1F721503040D1F72D984A
:103A500028EE33E0FA013197F1F721503040D1F7E9
:103A60009F5F981758F380930A0208953F924F92F0
:103A70005F926F927F928F929F92AF92BF92CF92FE
:103A8000DF92EF92FF920F931F93CF93DF9300008B
:103A900083E38093C4001092C50088E18093C10045
:103AA00086E08093C2005098589A259A81E00E943F
:103AB000171D44E1F42E3EE1E32E24E9D22E96E0D8
:103AC000C92E80E1B82EAA24A39401E4902E16E515
:103AD000812EB2E57B2EA0E26A2EF9E45F2EE3E5AB
:103AE0004E2E70E5372E0E94761C8033B1F1813363
:103AF00009F441C0803409F479C0813409F48CC0E0
:103B0000823471F1853409F47BC0803531F182351E
:103B100021F1813511F1853509F48DC0863509F41F
:103B20009DC0843609F4AEC0843709F41BC18537C3
:103B300009F485C1863709F47AC0809103018F5F4B
:103B400080930301853079F6E0910401F09105013D
:103B500009950E94761C803351F60E94F61CC3CF53
:103B600093E18091C00087FFFCCF8091C60099232C
:103B7000A1F39150F6CF0E94761C8032F1F680912D
:103B8000C00085FFFCCFF092C6008091C00085FF89
:103B9000FCCF9092C6008091C00085FFFCCF809240
:103BA000C6008091C00085FFFCCF7092C600809156
:103BB000C00085FFFCCF6092C6008091C00085FFE9
:103BC000FCCF5092C6008091C00085FFFCCF409290
:103BD000C6008091C00085FFFCCF3092C600809166
:103BE000C00085FFFCCFB092C6007DCF0E94761C3E
:103BF000863808F4B2CF0E94761C0E94F61C73CF60
:103C000094E08091C00087FFFCCF8091C60099238B
:103C100009F4A3CF9150F5CF0E94761C8038D1F0E3
:103C2000813861F1823809F499C0883979F080E0EF
:103C30000E94CA1C58CF0E94761C809306010E94E5
:103C4000761C809307010E94F61C4DCF83E00E94F2
:103C5000CA1C49CF82E00E94CA1C45CF0E94761C34
:103C6000803309F486C192E08091C00087FFFCCFC9
:103C70008091C6009923D9F29150F6CF81E00E943D
:103C8000CA1C31CF0E94761C809309020E94761CC8
:103C90008093080280910C028E7F80930C020E9418
:103CA000761C853429F480910C02816080930C028B
:103CB0008091080290910902892B89F000E010E0C0
:103CC0000E94761CF801E85FFE4F80830F5F1F4F54
:103CD00080910802909109020817190788F30E9441
:103CE000761C803209F029CF80910C0280FFD1C070
:103CF0004091060150910701440F551F5093070151
:103D000040930601A0910802B09109021097C9F0F2
:103D1000E8E0F1E09A01BD016E0F7F1FF999FECF37
:103D200032BD21BD819180BDFA9AF99A2F5F3F4F34
:103D3000E617F70799F74A0F5B1F50930701409367
:103D400006018091C00085FFFCCFF092C6008091F3
:103D5000C00085FFFCCFB092C600C5CE80E10E94B6
:103D6000CA1CC1CE0E94761C809309020E94761C58
:103D7000809308028091060190910701880F991F96
:103D800090930701809306010E94761C853409F404
:103D90007AC080910C028E7F80930C020E94761C68
:103DA000803209F0A0CE8091C00085FFFCCFF09258
:103DB000C600A0910802B09109021097B9F1809154
:103DC0000C02182F1170082F0270E0910601F0917B
:103DD00007019F012F5F3F4FB90140E050E01123E1
:103DE000B1F4002339F494918091C00085FFFCCF99
:103DF0009093C6004F5F5F4FCB010196F9014A17C0
:103E00005B0780F4BC012F5F3F4F112351F3F999F9
:103E1000FECFF2BDE1BDF89A90B58091C00085FF5C
:103E2000FCCFE6CF70930701609306018091C0003C
:103E300085FDD9CE8091C00085FFF8CFD4CE0E94F9
:103E4000761C803209F079CE8091C00085FFFCCFCE
:103E5000F092C6008091C00085FFFCCFE092C600C2
:103E60008091C00085FFFCCFD092C6008091C00039
:103E700085FFFCCFC092C6008091C00085FFFCCFBB
:103E8000B092C60030CE80910C02816080930C020B
:103E900085CF809107018823880F880B8A21809322
:103EA0000B028091060190910701880F991F909352
:103EB0000701809306018091080280FF09C080916C
:103EC00008029091090201969093090280930802DA
:103ED000F894F999FECF1127E0910601F0910701BE
:103EE000C8E0D1E08091080290910902103091F46D
:103EF0000091570001700130D9F303E0009357009F
:103F0000E8950091570001700130D9F301E1009369
:103F10005700E89509901990009157000170013001
:103F2000D9F301E000935700E8951395103498F009
:103F300011270091570001700130D9F305E000937B
:103F40005700E8950091570001700130D9F301E165
:103F500000935700E8953296029709F0C7CF1030CA
:103F600011F00296E5CF11248091C00085FFE9CEC3
:103F7000ECCE0E94761C0E94761C182F0E94761CA4
:103F8000112351F0113021F086E00E94CA1CABCD04
:103F900084E90E94CA1CA7CD8EE10E94CA1CA3CD51
:063FA000F894FFCF800041
:00000001FF
