:020000040000FA
:100000000C945E000C9486000C9486000C94860080
:100010000C9486000C9486000C9486000C94860048
:100020000C9486000C9486000C9486000C94860038
:100030000C9486000C9486000C9486000C94860028
:100040000C9430020C9486000C94A0020C947A025A
:100050000C9486000C9486000C9486000C94860008
:100060000C9486000C9486000000000024002700F9
:100070002A0000000000250028002B0004040404CE
:100080000404040402020202020203030303030342
:10009000010204081020408001020408102001021F
:1000A00004081020000000080002010000030407FB
:1000B0000000000000000000D2026C0411241FBEEA
:1000C000CFEFD8E0DEBFCDBF21E0AAE2B1E001C0B2
:1000D0001D92AA3DB207E1F711E0A0E0B1E0E4E72C
:1000E000FDE002C005900D92AA32B107D9F710E0E9
:1000F000CDE5D0E004C02197FE010E94AC04CC35D0
:10010000D107C9F70E940D030C94AD060C940000B2
:10011000E0EBF0E02491ECE9F0E09491E8E8F0E025
:10012000E491EE23C9F0222339F0233001F1A8F441
:10013000213019F1223029F1F0E0EE0FFF1FEE58C7
:10014000FF4FA591B4912FB7F894EC91811126C07F
:1001500090959E239C932FBF08952730A9F02830B7
:10016000C9F0243049F7209180002F7D03C02091F1
:1001700080002F7720938000DFCF24B52F7724BD18
:10018000DBCF24B52F7DFBCF2091B0002F772093BC
:10019000B000D2CF2091B0002F7DF9CF9E2BDACFC7
:1001A000AF92BF92CF92DF92EF92FF920F931F9385
:1001B000CF93DF936C017B018B01040F151FEB01C3
:1001C0005E01AE18BF08C017D10759F06991D6017A
:1001D000ED91FC910190F081E02DC6010995892BEC
:1001E00079F7C501DF91CF911F910F91FF90EF90AB
:1001F000DF90CF90BF90AF900895FC01538D448D58
:10020000252F30E0842F90E0821B930B541710F0C1
:10021000CF96089501970895FC01918D828D9817CE
:1002200061F0A28DAE0FBF2FB11D5D968C91928DA6
:100230009F5F9F73928F90E008958FEF9FEF0895D7
:10024000FC01918D828D981731F0828DE80FF11DA0
:10025000858D90E008958FEF9FEF0895FC01918DBB
:10026000228D892F90E0805C9F4F821B91098F73B4
:100270009927089583E391E00E942E0121E0892BC4
:1002800009F420E0822F089580E090E0892B29F086
:100290000E943A0181110C9400000895FC01A48D84
:1002A000A80FB92FB11DA35ABF4F2C91848D90E098
:1002B00001968F739927848FA689B7892C93A0897B
:1002C000B1898C91837080648C93938D848D981305
:1002D00006C00288F389E02D80818F7D8083089598
:1002E000EF92FF920F931F93CF93DF93EC0181E086
:1002F000888F9B8D8C8D98131AC0E889F98980812D
:1003000085FF15C09FB7F894EE89FF896083E8895F
:10031000F98980818370806480839FBF81E090E051
:10032000DF91CF911F910F91FF90EF900895F62EDE
:100330000B8D10E00F5F1F4F0F731127E02E8C8D78
:100340008E110CC00FB607FCFACFE889F9898081BD
:1003500085FFF5CFCE010E944E01F1CFEB8DEC0F62
:10036000FD2FF11DE35AFF4FF0829FB7F8940B8FDA
:10037000EA89FB8980818062CFCFCF93DF93EC0144
:10038000888D8823B9F0AA89BB89E889F9898C917D
:1003900085FD03C0808186FD0DC00FB607FCF7CF39
:1003A0008C9185FFF2CF808185FFEDCFCE010E9439
:1003B0004E01E9CFDF91CF9108950F931F93CF9313
:1003C000DF93EC0188819981009759F02A813B8164
:1003D0002617370730F081E0DF91CF911F910F9101
:1003E00008958B016F5F7F4F0E94D705009759F0EA
:1003F000998388831B830A832C813D81232B59F7A2
:10040000FC011082E8CF80E0E7CFEF92FF920F93DC
:100410001F93CF93DF93EC017B018A01BA010E9405
:10042000DD0128813981811114C02115310519F0B0
:10043000C9010E944E05198218821D821C821B82EE
:100440001A82CE01DF91CF911F910F91FF90EF9013
:1004500008951D830C83B701C9010E94A606F1CF40
:100460001F920F920FB60F9211242F933F938F93E9
:100470009F93AF93BF9380912F0190913001A091F2
:100480003101B091320130912E0123E0230F2D373D
:1004900058F50196A11DB11D20932E0180932F01C7
:1004A00090933001A0933101B093320180912A01E1
:1004B00090912B01A0912C01B0912D010196A11DCD
:1004C000B11D80932A0190932B01A0932C01B0932E
:1004D0002D01BF91AF919F918F913F912F910F90DF
:1004E0000FBE0F901F90189526E8230F0296A11DAE
:1004F000B11DD2CF1F920F920FB60F9211242F93DE
:100500003F934F935F936F937F938F939F93AF939B
:10051000BF93EF93FF9383E391E00E944E01FF911D
:10052000EF91BF91AF919F918F917F916F915F916B
:100530004F913F912F910F900FBE0F901F901895E4
:100540001F920F920FB60F9211242F938F939F93A8
:10055000EF93FF93E0914301F09144018081E0919A
:100560004901F0914A0182FD1BC0908180914C01AC
:100570008F5F8F7320914D01821741F0E0914C0104
:10058000F0E0ED5CFE4F958F80934C01FF91EF9171
:100590009F918F912F910F900FBE0F901F901895E4
:1005A0008081F4CFE3E3F1E01382128288EE93E0DE
:1005B000A0E0B0E084839583A683B7838AE091E0CE
:1005C0009183808385EC90E09587848784EC90E02C
:1005D0009787868780EC90E0918B808B81EC90E010
:1005E000938B828B82EC90E0958B848B86EC90E0F1
:1005F000978B868B118E128E138E148EE0EDF1E0A8
:1006000011821082138212821582148250E040E01F
:1006100068E271E0CF010C940502CF93DF9300D024
:1006200000D000D0CDB7DEB7789484B5826084BDA9
:1006300084B5816084BD85B5826085BD85B58160E6
:1006400085BD80916E00816080936E001092810064
:10065000809181008260809381008091810081601F
:1006600080938100809180008160809380008091E0
:10067000B10084608093B1008091B000816080936C
:10068000B00080917A00846080937A0080917A0033
:10069000826080937A0080917A00816080937A00F2
:1006A00080917A00806880937A001092C100E09176
:1006B0004301F091440182E08083E0913F01F09199
:1006C00040011082E0914101F09142018FEC808362
:1006D00010924B01E0914701F091480186E0808340
:1006E000E0914501F0914601808180618083E09135
:1006F0004501F0914601808188608083E091450149
:10070000F0914601808180688083E0914501F091FD
:10071000460180818F7D8083ECE9F0E02491E8E858
:10072000F0E08491882399F090E0880F991FFC01F4
:10073000E859FF4FA591B491FC01EE58FF4F859108
:1007400094918FB7F894EC91E22BEC938FBF80E0FB
:10075000E82E80E0F82E83E391E00E942E01181627
:1007600019060CF04FC083E391E00E940C018D301C
:1007700009F454C089831A820091D4011091D501E3
:100780000F5F1F4FB80180ED91E00E94DD018823CB
:1007900099F02091D0013091D1018091D4019091B4
:1007A000D501BE016F5F7F4F820F931F0E94A60687
:1007B0001093D5010093D4018091D4019091D5017B
:1007C000892B69F068E171E08091D0019091D101AD
:1007D0000E949D06892B19F481E00E948800809177
:1007E000D4019091D501892B69F06BE171E0809182
:1007F000D0019091D1010E949D06892B19F480E0CF
:100800000E948800E114F10409F4A5CF0E943A0186
:10081000882309F4A0CF0E9400009DCF1A8219827C
:100820001C821B821E821D8245E050E060E271E066
:10083000CE0101960E940502C090D001D090D10156
:10084000C114D104E1F10091D4011091D501011539
:100850001105B1F08D819E81080F191FB801CE01DD
:1008600001960E94DD01882351F129813A818D8111
:100870009E81B601820F931F0E94A6061E830D83E0
:100880004D815E8169817A8183E391E00E94D0008D
:1008900042E050E066E271E083E391E00E94D00024
:1008A00089819A81009711F00E944E0550E040E046
:1008B00068E271E080ED91E00E940502A3CF89819A
:1008C0009A81009711F00E944E051A8219821E82A9
:1008D0001D821C821B82D4CF8091D0019091D101C6
:1008E000009711F00C944E0508952F923F924F926D
:1008F0005F926F927F928F929F92AF92BF92CF92B0
:10090000DF92EF92FF920F931F93CF93DF93CDB7B8
:10091000DEB7CA1BDB0B0FB6F894DEBF0FBECDBF30
:1009200009942A88398848885F846E847D848C8401
:100930009B84AA84B984C884DF80EE80FD800C810A
:100940001B81AA81B981CE0FD11D0FB6F894DEBFED
:100950000FBECDBFED010895EE0FFF1F0590F4917E
:10096000E02D09940F931F93CF93DF93823091056D
:1009700010F482E090E0E091D801F091D90130E0EC
:1009800020E0B0E0A0E0309799F42115310509F49A
:100990004AC0281B390B24303105D8F58A819B8148
:1009A0006115710589F1FB0193838283FE0111C0FA
:1009B000408151810281138148175907E0F048179F
:1009C000590799F4109761F012960C9312971396A9
:1009D0001C933296CF01DF91CF911F910F91089513
:1009E0000093D8011093D901F4CF2115310551F0AE
:1009F0004217530738F0A901DB019A01BD01DF015D
:100A0000F801C1CFEF01F9CF9093D9018093D801BC
:100A1000CDCFFE01E20FF31F819391932250310954
:100A200039832883D7CF2091D6013091D701232B4A
:100A300041F420910201309103013093D7012093BA
:100A4000D60120910001309101012115310541F4B9
:100A50002DB73EB74091040150910501241B350B81
:100A6000E091D601F091D701E217F307A0F42E1B15
:100A70003F0B2817390778F0AC014E5F5F4F241702
:100A8000350748F04E0F5F1F5093D7014093D601B2
:100A9000819391939FCFF0E0E0E09CCFCF93DF93E1
:100AA0000097E9F0FC01329713821282A091D801DD
:100AB000B091D901ED0130E020E01097A1F4208140
:100AC0003181820F931F2091D6013091D7012817D1
:100AD000390709F061C0F093D701E093D601DF91A7
:100AE000CF910895EA01CE17DF07E8F54A815B81CF
:100AF0009E0141155105B1F7E901FB83EA83499154
:100B00005991C40FD51FEC17FD0761F480819181C5
:100B10000296840F951FE9019983888382819381CE
:100B20009B838A83F0E0E0E012968D919C9113976D
:100B30000097B9F52D913C911197CD010296820F46
:100B4000931F2091D6013091D7012817390739F624
:100B5000309751F51092D9011092D801B093D70176
:100B6000A093D601BCCFD383C28340815181840F2F
:100B7000951FC817D90761F44E5F5F4F888199812F
:100B8000480F591F518340838A819B8193838283BD
:100B90002115310509F0B0CFF093D901E093D801C8
:100BA0009ECFFD01DC01C0CF13821282D7CFB0E00F
:100BB000A0E0EDEDF5E00C9477048C01009751F482
:100BC000CB010E94B2048C01C801CDB7DEB7E0E1D1
:100BD0000C949304FC01E60FF71F9C01225031098D
:100BE000E217F30708F49DC0D901CD91DC9111976C
:100BF000C617D70798F0C530D10530F3CE0104975A
:100C00008617970708F3C61BD70B2297C193D1937A
:100C10006D937C93CF010E944E05D6CF5B01AC1A39
:100C2000BD0A4C018C0E9D1EA091D801B091D90136
:100C3000512C412CF12CE12C109731F58091D601EB
:100C40009091D7018815990509F05CC046165706A2
:100C500008F058C08091000190910101009741F483
:100C60008DB79EB74091040150910501841B950BEF
:100C7000E817F90708F055C0F093D701E093D601C3
:100C8000F90171836083A0CF8D919C911197129689
:100C90006C90129713967C901397A815B90559F587
:100CA0006C0142E0C40ED11CCA14DB0420F1AC017B
:100CB0004A195B09DA011296159780F062827382F5
:100CC00051834083D9016D937C93E114F10471F059
:100CD000D7011396FC93EE93129776CF22968C0F42
:100CE0009D1FF90191838083F301EFCFF093D90128
:100CF000E093D80169CF4816590608F42C017D010C
:100D0000D3019ACFCB010E94B2047C01009749F035
:100D1000AE01B8010E949406C8010E944E058701E9
:100D200053CF10E000E050CFFB01DC0102C0019086
:100D30000D9241505040D8F70895FB01DC018D9190
:100D4000019080190110D9F3990B0895FB01DC0182
:100D500001900D920020E1F7089510E0CDE5D0E07C
:100D600004C0FE010E94AC042196CE35D107C9F71C
:100D7000F894FFCF0000DA0180000000000070014D
:100D8000D000FD00BD012E010C012001676F007332
:0E0D9000746F700052657A3A20000D0A000060
:107E0000112484B714BE81FFF0D085E080938100F7
:107E100082E08093C00088E18093C10086E0809377
:107E2000C20080E18093C4008EE0C9D0259A86E02C
:107E300020E33CEF91E0309385002093840096BBD3
:107E4000B09BFECF1D9AA8958150A9F7CC24DD24C4
:107E500088248394B5E0AB2EA1E19A2EF3E0BF2EE7
:107E6000A2D0813461F49FD0082FAFD0023811F036
:107E7000013811F484E001C083E08DD089C08234E0
:107E800011F484E103C0853419F485E0A6D080C0E4
:107E9000853579F488D0E82EFF2485D0082F10E0AE
:107EA000102F00270E291F29000F111F8ED06801E7
:107EB0006FC0863521F484E090D080E0DECF843638
:107EC00009F040C070D06FD0082F6DD080E0C81688
:107ED00080E7D80618F4F601B7BEE895C0E0D1E017
:107EE00062D089930C17E1F7F0E0CF16F0E7DF06D8
:107EF00018F0F601B7BEE89568D007B600FCFDCFD4
:107F0000A601A0E0B1E02C9130E011968C91119780
:107F100090E0982F8827822B932B1296FA010C0160
:107F200087BEE89511244E5F5F4FF1E0A038BF0790
:107F300051F7F601A7BEE89507B600FCFDCF97BE46
:107F4000E89526C08437B1F42ED02DD0F82E2BD052
:107F50003CD0F601EF2C8F010F5F1F4F84911BD097
:107F6000EA94F801C1F70894C11CD11CFA94CF0C13
:107F7000D11C0EC0853739F428D08EE10CD085E9AC
:107F80000AD08FE07ACF813511F488E018D01DD067
:107F900080E101D065CF982F8091C00085FFFCCF94
:107FA0009093C60008958091C00087FFFCCF809118
:107FB000C00084FD01C0A8958091C6000895E0E648
:107FC000F0E098E1908380830895EDDF803219F02E
:107FD00088E0F5DFFFCF84E1DECF1F93182FE3DFCA
:107FE0001150E9F7F2DF1F91089580E0E8DFEE27F6
:047FF000FF270994CA
:027FFE00040479
:00000001FF
