:100000000C945D000C9485000C9485000C94850084
:100010000C9485000C9485000C9485000C9485004C
:100020000C9485000C9485000C9485000C9485003C
:100030000C9485000C9485000C9485000C9485002C
:100040000C94DF030C9485000C94AD030C9487038F
:100050000C9485000C9485000C9485000C9485000C
:100060000C9485000C9485000000000024002700FB
:100070002A0000000000250028002B0004040404CE
:100080000404040402020202020203030303030342
:10009000010204081020408001020408102001021F
:1000A00004081020000000080002010000030407FB
:1000B0000000000000000000600611241FBECFEF0A
:1000C000D4E0DEBFCDBF22E0A8E4B1E001C01D92C4
:1000D000A230B207E1F711E0A0E0B1E0EAE1F2E11D
:1000E00002C005900D92A834B107D9F710E0CDE514
:1000F000D0E004C02197FE010E941307CC35D10740
:10010000C9F70E9429040C940B090C940000E1EB40
:10011000F0E02491EDE9F0E09491E9E8F0E0E49179
:10012000EE23C9F0222339F0233001F1A8F4213065
:1001300019F1223029F1F0E0EE0FFF1FEE58FF4FCA
:10014000A591B4912FB7F894EC91811126C09095A8
:100150009E239C932FBF08952730A9F02830C9F023
:10016000243049F7209180002F7D03C0209180002A
:100170002F7720938000DFCF24B52F7724BDDBCFEE
:1001800024B52F7DFBCF2091B0002F772093B000B6
:10019000D2CF2091B0002F7DF9CF9E2BDACFAF9236
:1001A000BF92CF92DF92EF92FF920F931F93CF9364
:1001B000DF936C017B018B01040F151FEB015E01C6
:1001C000AE18BF08C017D10759F06991D601ED915B
:1001D000FC910190F081E02DC6010995892B79F7FA
:1001E000C501DF91CF911F910F91FF90EF90DF90AC
:1001F000CF90BF90AF900895FC01538D448D252F73
:1002000030E0842F90E0821B930B541710F0CF96B0
:10021000089501970895FC01918D828D981761F0E2
:10022000A28DAE0FBF2FB11D5D968C91928D9F5FF9
:100230009F73928F90E008958FEF9FEF0895FC01D8
:10024000918D828D981731F0828DE80FF11D858D8B
:1002500090E008958FEF9FEF0895FC01918D228D1E
:10026000892F90E0805C9F4F821B91098F739927A3
:10027000089581E691E00E942D0121E0892B09F487
:1002800020E0822F089580E090E0892B29F00E94E1
:10029000390181110C9400000895FC01A48DA80F70
:1002A000B92FB11DA35ABF4F2C91848D90E00196B8
:1002B0008F739927848FA689B7892C93A089B189D8
:1002C0008C91837080648C93938D848D981306C079
:1002D0000288F389E02D80818F7D80830895EF92DD
:1002E000FF920F931F93CF93DF93EC0181E0888FF0
:1002F0009B8D8C8D98131AC0E889F989808185FFC0
:1003000015C09FB7F894EE89FF896083E889F98961
:1003100080818370806480839FBF81E090E0DF9163
:10032000CF911F910F91FF90EF900895F62E0B8DB6
:1003300010E00F5F1F4F0F731127E02E8C8D8E1171
:100340000CC00FB607FCFACFE889F989808185FFD8
:10035000F5CFCE010E944D01F1CFEB8DEC0FFD2FBB
:10036000F11DE35AFF4FF0829FB7F8940B8FEA8993
:10037000FB8980818062CFCFCF93DF93EC01888DA2
:100380008823B9F0AA89BB89E889F9898C9185FD10
:1003900003C0808186FD0DC00FB607FCF7CF8C919E
:1003A00085FFF2CF808185FFEDCFCE010E944D0108
:1003B000E9CFDF91CF9108953FB7F89480914D0137
:1003C00090914E01A0914F01B091500126B5A89B8C
:1003D00005C02F3F19F00196A11DB11D3FBFBA2FD7
:1003E000A92F982F8827BC01CD01620F711D811D97
:1003F000911D42E0660F771F881F991F4A95D1F71C
:1004000008958F929F92AF92BF92CF92DF92EF9218
:10041000FF920E94DC014B015C0184EFC82EDD24B9
:10042000D394E12CF12C0E94DC01681979098A0926
:100430009B09683E734081059105A8F321E0C21A2B
:10044000D108E108F10888EE880E83E0981EA11C0F
:10045000B11CC114D104E104F10429F7FF90EF901D
:10046000DF90CF90BF90AF909F908F9008952FB75F
:10047000F8946091490170914A0180914B019091EB
:100480004C012FBF08950F931F930E943702609372
:10049000690170936A0180936B0190936C0181E60E
:1004A00091E00E941F0197FF1DC00E94370200913A
:1004B000690110916A0120916B0130916C01601B00
:1004C000710B820B930B00916501109166012091D5
:1004D0006701309168016017710782079307F8F28E
:1004E0008FEF9FEF1F910F91089542E050E068E178
:1004F00071E081E691E00C94CF00CF93DF93FC0193
:1005000001900020E9F73197AF01481B590BBC015E
:1005100081E691E00E94CF00EC010E9475028C0FF1
:100520009D1FDF91CF910895CF93DF93FC0144810C
:1005300055816081718181E691E00E94CF00EC01DC
:100540000E9475028C0F9D1FDF91CF910895FC01D1
:1005500080819181009711F00C94B50708950F9355
:100560001F93CF93DF93EC0188819981009759F015
:100570002A813B812617370730F081E0DF91CF9148
:100580001F910F9108958B016F5F7F4F0E943E086E
:10059000009759F0998388831B830A832C813D81BE
:1005A000232B59F7FC011082E8CF80E0E7CFEF92D0
:1005B000FF920F931F93CF93DF93EC01FB01E08039
:1005C000F180E114F10411F1048115810115110587
:1005D000A9F08C819D81080F191FB801CE010E94DE
:1005E000AF02882399F0288139818C819D81B701E0
:1005F000820F931F0E9404091D830C83CE01DF919B
:10060000CF911F910F91FF90EF900895888199816C
:10061000009711F00E94B507198218821D821C8272
:100620001B821A82EBCFEF92FF920F931F93CF930F
:10063000DF93EC017B018A01BA010E94AF0228819D
:100640003981811114C02115310519F0C9010E94A9
:10065000B507198218821D821C821B821A82CE0164
:10066000DF91CF911F910F91FF90EF9008951D831F
:100670000C83B701C9010E940409F1CFEF92FF92E8
:100680000F931F93CF93DF93CDB7DEB762970FB66B
:10069000F894DEBF0FBECDBF8C01CB01F8011182F3
:1006A000108213821282158214824AE09E012F5F0B
:1006B0003F4F7901B9010E948D06F701019000209A
:1006C000E9F73197AF014E195F09B701C8010E94E0
:1006D000130362960FB6F894DEBF0FBECDBFDF9155
:1006E000CF911F910F91FF90EF900895FC0111821F
:1006F00010821382128215821482FB010190002065
:10070000E9F73197AF01461B570B0C9413031F9267
:100710000F920FB60F9211242F933F934F935F9335
:100720006F937F938F939F93AF93BF93EF93FF93B9
:1007300081E691E00E944D01FF91EF91BF91AF9151
:100740009F918F917F916F915F914F913F912F91E9
:100750000F900FBE0F901F9018951F920F920FB61B
:100760000F9211242F938F939F93EF93FF93E09118
:100770007101F09172018081E0917701F09178012F
:1007800082FD1BC0908180917A018F5F8F732091D1
:100790007B01821741F0E0917A01F0E0EF59FE4FC2
:1007A000958F80937A01FF91EF919F918F912F9177
:1007B0000F900FBE0F901F9018958081F4CF1F925D
:1007C0000F920FB60F9211242F933F938F939F9305
:1007D000AF93BF938091490190914A01A0914B0141
:1007E000B0914C013091480123E0230F2D3758F58B
:1007F0000196A11DB11D209348018093490190935A
:100800004A01A0934B01B0934C0180914D0190910E
:100810004E01A0914F01B09150010196A11DB11D53
:1008200080934D0190934E01A0934F01B0935001DE
:10083000BF91AF919F918F913F912F910F900FBEDC
:100840000F901F90189526E8230F0296A11DB11D49
:10085000D2CFCF93DF93CDB7DEB72C970FB6F894F6
:10086000DEBF0FBECDBF789484B5826084BD84B5F1
:10087000816084BD85B5826085BD85B5816085BD9B
:1008800080916E00816080936E0010928100809153
:1008900081008260809381008091810081608093DB
:1008A0008100809180008160809380008091B10000
:1008B00084608093B1008091B00081608093B0002B
:1008C00080917A00846080937A0080917A008260BF
:1008D00080937A0080917A00816080937A00809181
:1008E0007A00806880937A001092C100E0917101D3
:1008F000F091720182E08083E0916D01F0916E01D0
:100900001082E0916F01F09170018FEC8083109262
:100910007901E0917501F091760186E08083E091A4
:100920007301F0917401808180618083E091730193
:10093000F0917401808188608083E0917301F0916F
:100940007401808180688083E0917301F09174016B
:1009500080818F7D8083EDE9F0E02491E9E8F0E08B
:100960008491882399F090E0880F991FFC01E85941
:10097000FF4FA591B491FC01EE58FF4F85919491E2
:100980008FB7F894EC91E22BEC938FBF81E00E943B
:1009900087000E94010280E00E9487008BE191E0C5
:1009A0000E947D0208EE13E0AA24A394B12C80E0FB
:1009B000882E80E0982E81E691E00E942D0102971A
:1009C0000CF4C6C081E691E00E940B01782E0E94D3
:1009D0004302FC0197FD57C08D32910521F0C0976D
:1009E0000A9708F048C0C12CD12C7601612CE13067
:1009F000F105D9F0ED32F10509F442C0CF01C097FD
:100A00000A9798F4AAE0B0E0A70196010E94C206F6
:100A10006F01FF0FEE08FF08C60ED71EE81EF91E75
:100A200080E3C81AD108E108F10881E691E00E944C
:100A30000B010E944302FC01C0970A97C0F2E1300B
:100A4000F105A9F2662041F0F094E094D094C094AE
:100A5000C11CD11CE11CF11C83E77816C1F084E7AE
:100A6000781609F424C180E7781215C0D0925C0191
:100A7000C0925B0110C081E691E00E940B01A7CFFC
:100A800066246394D2CFC12CD12C7601E5CFD092CD
:100A90006001C0925F0160915F0170916001CE01C1
:100AA00001960E943E0363E271E0CE0107960E9428
:100AB0007603BE016F5F7F4FCE0107960E94D7027B
:100AC0000E949402CE0107960E94A702CE010196D1
:100AD0000E94A70260915D0170915E01CE010196B6
:100AE0000E943E0369E271E0CE0107960E94760300
:100AF000BE016F5F7F4FCE0107960E94D7020E9412
:100B00009402CE0107960E94A702CE0101960E9490
:100B1000A70260915B0170915C01CE0101960E9479
:100B20003E036FE271E0CE0107960E947603BE019C
:100B30006F5F7F4FCE0107960E94D7020E949402FA
:100B4000CE0107960E94A702CE0101960E94A7023D
:100B500080915F0190916001892B09F4ADC00E94E2
:100B60003702C0905701D0905801E0905901F090A1
:100B70005A01AB01BC014C195D096E097F09209136
:100B80005D0130915E01209FC001219F900D309F3B
:100B9000900D1124092E000CAA0BBB0B841795078E
:100BA000A607B70750F58091550190915601892B02
:100BB00021F50E943702609357017093580180938A
:100BC000590190935A010E9437026093510170932A
:100BD0005201809353019093540181E00E94870059
:100BE0000E94010280E00E94870087E391E00E945A
:100BF0007D02B0925601A09255010E943702C0902A
:100C00005101D0905201E0905301F0905401AB019A
:100C1000BC014C195D096E097F0920915B0130917F
:100C20005C01209FC001219F900D309F900D1124E9
:100C3000092E000CAA0BBB0B84179507A607B70754
:100C400050F58091550190915601019721F50E9430
:100C50003702609351017093520180935301909336
:100C600054010E943702609357017093580180939A
:100C7000590190935A0181E00E9487000E9401026D
:100C800080E00E94870080E491E00E947D02109243
:100C90005601109255018114910409F48CCE0E94E2
:100CA0003901882309F487CE0E94000080CED092BB
:100CB0005E01C0925D01EFCE80E00E948700EBCF25
:100CC000E1E6F1E01382128288EE93E0A0E0B0E06A
:100CD00084839583A683B7838AE091E091838083A0
:100CE00085EC90E09587848784EC90E097878687F1
:100CF00080EC90E0918B808B81EC90E0938B828BE9
:100D000082EC90E0958B848B86EC90E0978B868BC1
:100D1000118E128E138E148E0895BB274A3031F433
:100D2000992322F4BDE2909581959F4F0C949906EA
:100D3000BB27FB015527AA27880F991FAA1FA417B5
:100D400010F0A41B83955051B9F7A05DAA3308F0A9
:100D5000A95DA193009779F7B111B1931192CB01DD
:100D60000C94B206DC01FC01672F71917723E1F747
:100D7000329704C07C916D9370836291AE17BF0768
:100D8000C8F308950E940407A59F900DB49F900D8D
:100D9000A49F800D911D112408952F923F924F9290
:100DA0005F926F927F928F929F92AF92BF92CF92FB
:100DB000DF92EF92FF920F931F93CF93DF93CDB704
:100DC000DEB7CA1BDB0B0FB6F894DEBF0FBECDBF7C
:100DD00009942A88398848885F846E847D848C844D
:100DE0009B84AA84B984C884DF80EE80FD800C8156
:100DF0001B81AA81B981CE0FD11D0FB6F894DEBF39
:100E00000FBECDBFED010895A29FB001B39FC001F9
:100E1000A39F700D811D1124911DB29F700D811D26
:100E20001124911D0895EE0FFF1F0590F491E02D00
:100E300009940F931F93CF93DF938230910510F4A1
:100E400082E090E0E0910002F091010230E020E0C9
:100E5000B0E0A0E0309799F42115310509F44AC0BB
:100E6000281B390B24303105D8F58A819B81611507
:100E7000710589F1FB0193838283FE0111C04081DA
:100E800051810281138148175907E0F0481759072B
:100E900099F4109761F012960C93129713961C9385
:100EA0003296CF01DF91CF911F910F91089500935A
:100EB000000210930102F4CF2115310551F04217C1
:100EC000530738F0A901DB019A01BD01DF01F801E8
:100ED000C1CFEF01F9CF9093010280930002CDCFF3
:100EE000FE01E20FF31F8193919322503109398360
:100EF0002883D7CF2091FE013091FF01232B41F4AD
:100F000020910201309103013093FF012093FE01F3
:100F100020910001309101012115310541F42DB7D7
:100F20003EB74091040150910501241B350BE0911F
:100F3000FE01F091FF01E217F307A0F42E1B3F0B17
:100F40002817390778F0AC014E5F5F4F241735073B
:100F500048F04E0F5F1F5093FF014093FE018193B5
:100F600091939FCFF0E0E0E09CCFCF93DF93009789
:100F7000E9F0FC01329713821282A0910002B09135
:100F80000102ED0130E020E01097A1F420813181D1
:100F9000820F931F2091FE013091FF01281739071E
:100FA00009F061C0F093FF01E093FE01DF91CF9162
:100FB0000895EA01CE17DF07E8F54A815B819E01BB
:100FC00041155105B1F7E901FB83EA834991599134
:100FD000C40FD51FEC17FD0761F480819181029643
:100FE000840F951FE90199838883828193819B8374
:100FF0008A83F0E0E0E012968D919C911397009720
:10100000B9F52D913C911197CD010296820F931F56
:101010002091FE013091FF012817390739F63097EA
:1010200051F51092010210920002B093FF01A093BB
:10103000FE01BCCFD383C28340815181840F951FB1
:10104000C817D90761F44E5F5F4F88819981480FB7
:10105000591F518340838A819B8193838283211509
:10106000310509F0B0CFF0930102E09300029ECF6A
:10107000FD01DC01C0CF13821282D7CFB0E0A0E027
:10108000E4E4F8E00C94CF068C01009751F4CB0116
:101090000E9419078C01C801CDB7DEB7E0E10C94BE
:1010A000EB06FC01E60FF71F9C0122503109E21705
:1010B000F30708F49DC0D901CD91DC911197C617B3
:1010C000D70798F0C530D10530F3CE0104978617C5
:1010D000970708F3C61BD70B2297C193D1936D9343
:1010E0007C93CF010E94B507D6CF5B01AC1ABD0A35
:1010F0004C018C0E9D1EA0910002B0910102512C5A
:10110000412CF12CE12C109731F58091FE0190914A
:10111000FF018815990509F05CC04616570608F0CE
:1011200058C08091000190910101009741F48DB762
:101130009EB74091040150910501841B950BE8175F
:10114000F90708F055C0F093FF01E093FE01F901A3
:1011500071836083A0CF8D919C91119712966C90B2
:10116000129713967C901397A815B90559F56C0141
:1011700042E0C40ED11CCA14DB0420F1AC014A19B0
:101180005B09DA011296159780F0628273825183AF
:101190004083D9016D937C93E114F10471F0D70180
:1011A0001396FC93EE93129776CF22968C0F9D1F89
:1011B000F90191838083F301EFCFF0930102E09373
:1011C000000269CF4816590608F42C017D01D301AD
:1011D0009ACFCB010E9419077C01009749F0AE011C
:1011E000B8010E94FB08C8010E94B507870153CFD0
:1011F00010E000E050CFFB01DC0102C001900D9235
:1012000041505040D8F70895FB01DC0101900D9248
:0A1210000020E1F70895F894FFCFE5
:10121A00000002028000000000006F01CF00FC0005
:10122A00BC012D010B011F010D0A004F6E205469EC
:10123A006D6500466C6167200054696D6520005039
:10124A006572696F6420006F66662054696D650077
:08125A006F6E2054696D650000
:00000001FF
